{
  "contractName": "AccessControl",
  "abi": [
    {
      "inputs": [],
      "stateMutability": "nonpayable",
      "type": "constructor"
    },
    {
      "anonymous": false,
      "inputs": [
        {
          "indexed": false,
          "internalType": "string",
          "name": "message",
          "type": "string"
        }
      ],
      "name": "Debug",
      "type": "event"
    },
    {
      "inputs": [
        {
          "internalType": "address",
          "name": "user",
          "type": "address"
        },
        {
          "internalType": "string",
          "name": "role",
          "type": "string"
        }
      ],
      "name": "assignRole",
      "outputs": [],
      "stateMutability": "nonpayable",
      "type": "function"
    },
    {
      "inputs": [
        {
          "internalType": "address",
          "name": "user",
          "type": "address"
        }
      ],
      "name": "getRole",
      "outputs": [
        {
          "internalType": "string",
          "name": "",
          "type": "string"
        }
      ],
      "stateMutability": "view",
      "type": "function",
      "constant": true
    }
  ],
  "bytecode": "0x608060405234801562000010575f80fd5b507f7cdb51e9dbbc205231228146c3246e7f914aa6d4a33170e43ecc8e3593481d1a60405162000040906200019b565b60405180910390a16040518060400160405280600581526020017f61646d696e0000000000000000000000000000000000000000000000000000008152505f803373ffffffffffffffffffffffffffffffffffffffff1673ffffffffffffffffffffffffffffffffffffffff1681526020019081526020015f209081620000c891906200041f565b507f7cdb51e9dbbc205231228146c3246e7f914aa6d4a33170e43ecc8e3593481d1a604051620000f89062000551565b60405180910390a17f7cdb51e9dbbc205231228146c3246e7f914aa6d4a33170e43ecc8e3593481d1a6040516200012f90620005bf565b60405180910390a1620005df565b5f82825260208201905092915050565b7f436f6e7374727563746f722073746172746564000000000000000000000000005f82015250565b5f620001836013836200013d565b915062000190826200014d565b602082019050919050565b5f6020820190508181035f830152620001b48162000175565b9050919050565b5f81519050919050565b7f4e487b71000000000000000000000000000000000000000000000000000000005f52604160045260245ffd5b7f4e487b71000000000000000000000000000000000000000000000000000000005f52602260045260245ffd5b5f60028204905060018216806200023757607f821691505b6020821081036200024d576200024c620001f2565b5b50919050565b5f819050815f5260205f209050919050565b5f6020601f8301049050919050565b5f82821b905092915050565b5f60088302620002b17fffffffffffffffffffffffffffffffffffffffffffffffffffffffffffffffff8262000274565b620002bd868362000274565b95508019841693508086168417925050509392505050565b5f819050919050565b5f819050919050565b5f6200030762000301620002fb84620002d5565b620002de565b620002d5565b9050919050565b5f819050919050565b6200032283620002e7565b6200033a62000331826200030e565b84845462000280565b825550505050565b5f90565b6200035062000342565b6200035d81848462000317565b505050565b5b818110156200038457620003785f8262000346565b60018101905062000363565b5050565b601f821115620003d3576200039d8162000253565b620003a88462000265565b81016020851015620003b8578190505b620003d0620003c78562000265565b83018262000362565b50505b505050565b5f82821c905092915050565b5f620003f55f1984600802620003d8565b1980831691505092915050565b5f6200040f8383620003e4565b9150826002028217905092915050565b6200042a82620001bb565b67ffffffffffffffff811115620004465762000445620001c5565b5b6200045282546200021f565b6200045f82828562000388565b5f60209050601f83116001811462000495575f841562000480578287015190505b6200048c858262000402565b865550620004fb565b601f198416620004a58662000253565b5f5b82811015620004ce57848901518255600182019150602085019450602081019050620004a7565b86831015620004ee5784890151620004ea601f891682620003e4565b8355505b6001600288020188555050505b505050505050565b7f41646d696e20726f6c652061737369676e656420746f206465706c6f796572005f82015250565b5f62000539601f836200013d565b9150620005468262000503565b602082019050919050565b5f6020820190508181035f8301526200056a816200052b565b9050919050565b7f436f6e7374727563746f7220636f6d706c6574656400000000000000000000005f82015250565b5f620005a76015836200013d565b9150620005b48262000571565b602082019050919050565b5f6020820190508181035f830152620005d88162000599565b9050919050565b61076c80620005ed5f395ff3fe608060405234801561000f575f80fd5b5060043610610034575f3560e01c80634427673314610038578063b7dfcbee14610068575b5f80fd5b610052600480360381019061004d9190610209565b610084565b60405161005f91906102be565b60405180910390f35b610082600480360381019061007d919061040a565b610150565b005b60605f808373ffffffffffffffffffffffffffffffffffffffff1673ffffffffffffffffffffffffffffffffffffffff1681526020019081526020015f2080546100cd90610491565b80601f01602080910402602001604051908101604052809291908181526020018280546100f990610491565b80156101445780601f1061011b57610100808354040283529160200191610144565b820191905f5260205f20905b81548152906001019060200180831161012757829003601f168201915b50505050509050919050565b805f808473ffffffffffffffffffffffffffffffffffffffff1673ffffffffffffffffffffffffffffffffffffffff1681526020019081526020015f2090816101999190610667565b505050565b5f604051905090565b5f80fd5b5f80fd5b5f73ffffffffffffffffffffffffffffffffffffffff82169050919050565b5f6101d8826101af565b9050919050565b6101e8816101ce565b81146101f2575f80fd5b50565b5f81359050610203816101df565b92915050565b5f6020828403121561021e5761021d6101a7565b5b5f61022b848285016101f5565b91505092915050565b5f81519050919050565b5f82825260208201905092915050565b5f5b8381101561026b578082015181840152602081019050610250565b5f8484015250505050565b5f601f19601f8301169050919050565b5f61029082610234565b61029a818561023e565b93506102aa81856020860161024e565b6102b381610276565b840191505092915050565b5f6020820190508181035f8301526102d68184610286565b905092915050565b5f80fd5b5f80fd5b7f4e487b71000000000000000000000000000000000000000000000000000000005f52604160045260245ffd5b61031c82610276565b810181811067ffffffffffffffff8211171561033b5761033a6102e6565b5b80604052505050565b5f61034d61019e565b90506103598282610313565b919050565b5f67ffffffffffffffff821115610378576103776102e6565b5b61038182610276565b9050602081019050919050565b828183375f83830152505050565b5f6103ae6103a98461035e565b610344565b9050828152602081018484840111156103ca576103c96102e2565b5b6103d584828561038e565b509392505050565b5f82601f8301126103f1576103f06102de565b5b813561040184826020860161039c565b91505092915050565b5f80604083850312156104205761041f6101a7565b5b5f61042d858286016101f5565b925050602083013567ffffffffffffffff81111561044e5761044d6101ab565b5b61045a858286016103dd565b9150509250929050565b7f4e487b71000000000000000000000000000000000000000000000000000000005f52602260045260245ffd5b5f60028204905060018216806104a857607f821691505b6020821081036104bb576104ba610464565b5b50919050565b5f819050815f5260205f209050919050565b5f6020601f8301049050919050565b5f82821b905092915050565b5f6008830261051d7fffffffffffffffffffffffffffffffffffffffffffffffffffffffffffffffff826104e2565b61052786836104e2565b95508019841693508086168417925050509392505050565b5f819050919050565b5f819050919050565b5f61056b6105666105618461053f565b610548565b61053f565b9050919050565b5f819050919050565b61058483610551565b61059861059082610572565b8484546104ee565b825550505050565b5f90565b6105ac6105a0565b6105b781848461057b565b505050565b5b818110156105da576105cf5f826105a4565b6001810190506105bd565b5050565b601f82111561061f576105f0816104c1565b6105f9846104d3565b81016020851015610608578190505b61061c610614856104d3565b8301826105bc565b50505b505050565b5f82821c905092915050565b5f61063f5f1984600802610624565b1980831691505092915050565b5f6106578383610630565b9150826002028217905092915050565b61067082610234565b67ffffffffffffffff811115610689576106886102e6565b5b6106938254610491565b61069e8282856105de565b5f60209050601f8311600181146106cf575f84156106bd578287015190505b6106c7858261064c565b86555061072e565b601f1984166106dd866104c1565b5f5b82811015610704578489015182556001820191506020850194506020810190506106df565b86831015610721578489015161071d601f891682610630565b8355505b6001600288020188555050505b50505050505056fea2646970667358221220297a08de53fff8c813410a74fca558060b2b9b0975b99322423e90d774c946f164736f6c63430008150033",
  "immutableReferences": {},
  "source": "pragma solidity ^0.8.0;\r\n\r\ncontract AccessControl {\r\n    mapping(address => string) private roles;\r\n\r\n    // Debugging event\r\n    event Debug(string message);\r\n\r\n    constructor() {\r\n        emit Debug(\"Constructor started\");\r\n        \r\n        // Perform initial setup\r\n        roles[msg.sender] = \"admin\";\r\n        emit Debug(\"Admin role assigned to deployer\");\r\n        \r\n        // Add more initialization code if needed\r\n        // For example:\r\n        // require(initializationFunction(), \"Initialization failed\");\r\n        \r\n        emit Debug(\"Constructor completed\");\r\n    }\r\n\r\n    function assignRole(address user, string memory role) public {\r\n        roles[user] = role;\r\n    }\r\n\r\n    function getRole(address user) public view returns (string memory) {\r\n        return roles[user];\r\n    }\r\n}\r\n",
  "sourcePath": "C:\\Users\\Simo\\Desktop\\access-control\\contracts\\AccessControl.sol",
  "compiler": {
    "name": "solc",
    "version": "0.8.21+commit.d9974bed.Emscripten.clang"
  },
  "schemaVersion": "3.4.16",
  "updatedAt": "2024-06-19T14:01:26.523Z",
  "networkType": "ethereum",
  "devdoc": {
    "kind": "dev",
    "methods": {},
    "version": 1
  },
  "userdoc": {
    "kind": "user",
    "methods": {},
    "version": 1
  }
}