{
  "contractName": "TimeContext",
  "abi": [
    {
      "inputs": [],
      "stateMutability": "nonpayable",
      "type": "constructor"
    },
    {
      "inputs": [],
      "name": "owner",
      "outputs": [
        {
          "internalType": "address",
          "name": "",
          "type": "address"
        }
      ],
      "stateMutability": "view",
      "type": "function",
      "constant": true
    },
    {
      "inputs": [],
      "name": "getCurrentHour",
      "outputs": [
        {
          "internalType": "uint256",
          "name": "",
          "type": "uint256"
        }
      ],
      "stateMutability": "view",
      "type": "function",
      "constant": true
    }
  ],
  "bytecode": "0x608060405234801561000f575f80fd5b50335f806101000a81548173ffffffffffffffffffffffffffffffffffffffff021916908373ffffffffffffffffffffffffffffffffffffffff16021790555061020d8061005c5f395ff3fe608060405234801561000f575f80fd5b5060043610610034575f3560e01c80638da5cb5b14610038578063b63589a114610056575b5f80fd5b610040610074565b60405161004d9190610100565b60405180910390f35b61005e610097565b60405161006b9190610131565b60405180910390f35b5f8054906101000a900473ffffffffffffffffffffffffffffffffffffffff1681565b5f6018603c80426100a89190610177565b6100b29190610177565b6100bc91906101a7565b905090565b5f73ffffffffffffffffffffffffffffffffffffffff82169050919050565b5f6100ea826100c1565b9050919050565b6100fa816100e0565b82525050565b5f6020820190506101135f8301846100f1565b92915050565b5f819050919050565b61012b81610119565b82525050565b5f6020820190506101445f830184610122565b92915050565b7f4e487b71000000000000000000000000000000000000000000000000000000005f52601260045260245ffd5b5f61018182610119565b915061018c83610119565b92508261019c5761019b61014a565b5b828204905092915050565b5f6101b182610119565b91506101bc83610119565b9250826101cc576101cb61014a565b5b82820690509291505056fea2646970667358221220d806568e5e30f7d1b62fb8faca92be212e6e64c44037b311e884fe53c6256f4b64736f6c63430008150033",
  "immutableReferences": {},
  "source": " // SPDX-License-Identifier: MIT\r\npragma solidity ^0.8.0;\r\n\r\ncontract TimeContext {\r\n    address public owner;\r\n\r\n    constructor() {\r\n        owner = msg.sender;\r\n    }\r\n\r\n    modifier onlyOwner() {\r\n        require(msg.sender == owner, \"Not authorized\");\r\n        _;\r\n    }\r\n\r\n    function getCurrentHour() public view returns (uint) {\r\n        return (block.timestamp / 60 / 60) % 24;\r\n    }\r\n}\r\n",
  "sourcePath": "C:\\Users\\Simo\\Desktop\\access-control\\contracts\\TimeContext.sol",
  "compiler": {
    "name": "solc",
    "version": "0.8.21+commit.d9974bed.Emscripten.clang"
  },
  "schemaVersion": "3.4.16",
  "updatedAt": "2024-06-19T14:01:26.529Z",
  "networkType": "ethereum",
  "devdoc": {
    "kind": "dev",
    "methods": {},
    "version": 1
  },
  "userdoc": {
    "kind": "user",
    "methods": {},
    "version": 1
  }
}